:020000040800F2
:100000000028002045100008B10F0008B70F0008B5
:10001000BD0F0008C30F0008C90F00080000000052
:10002000000000000000000000000000CF0F0008EA
:10003000DB0F000800000000E70F0008F30F0008C6
:100040008D1000088D1000088D1000088D1000081C
:100050008D1000088D1000088D1000088D1000080C
:100060008D1000088D1000088D1000088D100008FC
:100070008D1000088D1000088D1000088D100008EC
:100080008D1000088D1000088D1000088D100008DC
:100090008D1000088D1000088D1000088D100008CC
:1000A0008D1000088D1000088D1000088D100008BC
:1000B000011000088D100008000000008D100008DD
:1000C0008D10000800000000000000008D100008E6
:1000D000000000008D1000088D10000800000000D6
:1000E0008D1000088D1000088D1000080000000021
:1000F0000000000000000000000000000000000000
:0C01000000000000000000005FF808F1A3
:10010C0010B5054C237833B9044B13B10448AFF345
:10011C0000800123237010BD180000200000000097
:10012C00E426000808B5034B1BB103490348AFF3A1
:10013C00008008BD000000001C000020E426000820
:10014C0080B500AFAE4B1B68042B00F2CA8101A234
:10015C0052F823F0750100089D0100087B0200088D
:10016C004303000829040008A54B01221A60A54B83
:10017C0009221A60A34B1B68184600F039FB4FF498
:10018C007A7000F01BFE4FF47A7000F031FEB1E192
:10019C009D4B1B68012B11D19A4B1B68002B04DD66
:1001AC00984B1B68013B974A1360964B1B6818468B
:1001BC0000F01EFB4FF47A7000F01AFE934B1B6894
:1001CC00184600F0A5F90346012B0ED18C4B0222E8
:1001DC001A608C4B00221A608A4B1B68184600F080
:1001EC0007FB42F2107000F0E9FD894B1B681846C2
:1001FC0000F08EF90346012B17D1814B03221A60B4
:10020C00804B1B6801337F4A13607E4B1B68092BA4
:10021C0002DD7C4B00221A607A4B1B68184600F0FA
:10022C00E7FA42F2107000F0C9FD7A4B1B681846D1
:10023C0000F06EF90346012B40F05581704B0422FF
:10024C001A60704B1B68013B6E4A13606D4B1B6848
:10025C00002B02DA6B4B09221A606A4B1B6818469A
:10026C0000F0C6FA42F2107000F0A8FD3BE16A4BB8
:10027C001B68012B06D1624B01221A604FF47A7075
:10028C0000F09CFD614B1B68184600F041F90346D9
:10029C00012B0ED15A4B02221A605A4B00221A60C3
:1002AC00584B1B68184600F0A3FA42F2107000F08D
:1002BC0085FD574B1B68184600F02AF90346012BA5
:1002CC0017D14F4B03221A604E4B1B6801334D4A1A
:1002DC0013604C4B1B68092B02DD4A4B00221A6041
:1002EC00484B1B68184600F083FA42F2107000F07D
:1002FC0065FD484B1B68184600F00AF90346012BB4
:10030C0040F0F3803E4B04221A603E4B1B68013BCD
:10031C003C4A13603B4B1B68002B02DA394B092219
:10032C001A60384B1B68184600F062FA42F21070E3
:10033C0000F044FDD9E0384B1B68012B06D1304B43
:10034C0001221A604FF47A7000F038FD2F4B1B68B5
:10035C00184600F0DDF80346012B0ED1284B022283
:10036C001A60284B00221A60264B1B68184600F0B6
:10037C003FFA42F2107000F021FD254B1B68184625
:10038C0000F0C6F80346012B17D11D4B03221A604F
:10039C001C4B1B6801331B4A13601A4B1B68092B3F
:1003AC0002DD184B00221A60164B1B68184600F031
:1003BC001FFA42F2107000F001FD164B1B68184634
:1003CC0000F0A6F80346012B40F091800C4B042260
:1003DC001A600C4B1B68013B0A4A1360094B1B68E3
:1003EC00002B02DA074B09221A60064B1B681846D1
:1003FC0000F0FEF942F2107000F0E0FC77E000BF74
:10040C00340000203C000020740000203800002044
:10041C00000000200400002070000020364B1B68F8
:10042C00012B06D1354B01221A604FF47A7000F083
:10043C00C5FC334B1B68184600F06AF80346012BC9
:10044C000ED12E4B02221A602E4B00221A602D4B1D
:10045C001B68184600F0CCF942F2107000F0AEFCAC
:10046C00294B1B68184600F053F80346012B17D193
:10047C00224B03221A60234B1B680133214A136061
:10048C00204B1B68092B02DD1E4B00221A601D4BF2
:10049C001B68184600F0ACF942F2107000F08EFCAC
:1004AC001A4B1B68184600F033F80346012B20D179
:1004BC00124B04221A60134B1B68013B114A136048
:1004CC00104B1B68002B02DA0E4B09221A600D4BE5
:1004DC001B68184600F08CF942F2107000F06EFCAC
:1004EC0007E000BF06E000BF04E000BF02E000BF71
:1004FC0000E000BF00BF80BD700000203400002071
:10050C00380000203C0000200000002004000020E7
:10051C0080B483B000AF7860094A7B6813441B78C1
:10052C00012B06D1064A7B68134400221A70012362
:10053C0000E0002318460C37BD4680BC704700BF56
:10054C005400002080B483B000AF0346FB71FB79EC
:10055C00022B01D9002307E0FB79064AD35C002B60
:10056C000CBF01230023DBB218460C37BD4680BC00
:10057C00704700BF4000002080B483B000AF03463A
:10058C00FB71FB79022B01D9FF2307E0FB79064AAB
:10059C00D35C012B0CBF01230023DBB218460C37B4
:1005AC00BD4680BC704700BF5000002080B582B0B3
:1005BC0000AF0346FB71FB79514AD35C022B69D027
:1005CC00022B00F39980002B02D0012B1AD093E060
:1005DC00FB791846FFF7B6FF0346002B00F0898025
:1005EC00FB79474A0121D154FB79464A002122F874
:1005FC001310FB79444A0021D154FB79434A012161
:10060C00D15476E0FB791846FFF79CFF0346002B8C
:10061C000DD1FB793A4A0021D154FB793B4A002198
:10062C00D154FB79374A002122F8131063E0FB798F
:10063C00344A32F81330B3F5967F09D2FB79314A3C
:10064C0032F81320013291B22E4A22F8131011E025
:10065C00FB792D4A0121D154FB792C4A0121D1542B
:10066C00FB792B4A002122F81310FB79254A002133
:10067C0022F81310FB791846FFF77EFF0346002B78
:10068C0039D0FB791E4A0221D154FB791E4A002134
:10069C00D15430E0FB791846FFF754FF0346002B8A
:1006AC000DD1FB79164A0021D154FB79174A002150
:1006BC00D154FB79164A002122F813101CE0FB7967
:1006CC00134A32F81330632B09D8FB79104A32F8ED
:1006DC001320013291B20E4A22F813100CE0FB7970
:1006EC000A4A0121D154FB79094A002122F813103E
:1006FC0002E000BF00E000BF00BF0837BD4680BD70
:10070C0068000020580000205000002054000020F9
:10071C006000002090B583B000AF0023FB7154E063
:10072C00FA79FB792D49895C2D4AD154FA79FB79F8
:10073C002C49895C294AD154FB79022B1CD0022B01
:10074C0025DC002B02D0012B0BD020E0FC794FF4E0
:10075C008061254800F080FF03461A46214B1A554C
:10076C0016E0FC794FF400611F4800F075FF03465A
:10077C001A461C4B1A550BE0FC794FF480511A4861
:10078C0000F06AFF03461A46164B1A5500E000BFEC
:10079C00FB79144AD25CFB791049CB5C9A4211D19B
:1007AC00FB790E4AD25CFB790D49CB5C9A4209D19C
:1007BC00FA79FB790A49895C0C4AD154FB791846C1
:1007CC00FFF7F4FEFB790133FB71FB79022BA7D900
:1007DC0000BF00BF0C37BD4690BD00BF48000020D5
:1007EC004C00002044000020000C01404000002080
:1007FC0080B582B000AF78607B68092B00F28081F5
:10080C0001A252F823F000BF3D080008850800083B
:10081C00CD080008150900085D090008A5090008A5
:10082C00ED090008350A00087D0A0008C50A000811
:10083C0000220121C64800F026FF00220221C448F4
:10084C0000F021FF00220421C14800F01CFF00220F
:10085C000821BF4800F017FF00221021BC4800F00F
:10086C0012FF00222021BA4800F00DFF0122402186
:10087C00B74800F008FF67E101220121B44800F0FD
:10088C0002FF00220221B24800F0FDFE00220421EA
:10089C00AF4800F0F8FE01220821AD4800F0F3FE4D
:1008AC0001221021AA4800F0EEFE01222021A848C6
:1008BC0000F0E9FE01224021A54800F0E4FE43E1EE
:1008CC0000220121A24800F0DEFE00220221A048F5
:1008DC0000F0D9FE012204219D4800F0D4FE002234
:1008EC0008219B4800F0CFFE00221021984800F010
:1008FC00CAFE01222021964800F0C5FE00224021AC
:10090C00934800F0C0FE1FE100220121904800F046
:10091C00BAFE002202218E4800F0B5FE002204210E
:10092C008B4800F0B0FE00220821894800F0ABFE95
:10093C0001221021864800F0A6FE012220218448C5
:10094C0000F0A1FE00224021814800F09CFEFBE05B
:10095C00012201217E4800F096FE002202217C48F3
:10096C0000F091FE00220421794800F08CFE012257
:10097C000821774800F087FE01221021744800F00E
:10098C0082FE00222021724800F07DFE00224021D0
:10099C006F4800F078FED7E0002201216C4800F08F
:1009AC0072FE012202216A4800F06DFE0022042131
:1009BC00674800F068FE00220821654800F063FEDD
:1009CC0001221021624800F05EFE002220216048C6
:1009DC0000F059FE002240215D4800F054FEB3E0C7
:1009EC00002201215A4800F04EFE012202215848F3
:1009FC0000F049FE00220421554800F044FE00227C
:100A0C000821534800F03FFE00221021504800F00E
:100A1C003AFE002220214E4800F035FE00224021F3
:100A2C004B4800F030FE8FE000220121484800F0D6
:100A3C002AFE00220221464800F025FE0022042155
:100A4C00434800F020FE01220821414800F01BFE23
:100A5C00012210213E4800F016FE012220213C48C4
:100A6C0000F011FE01224021394800F00CFE6BE031
:100A7C0000220121364800F006FE002202213448F3
:100A8C0000F001FE00220421314800F0FCFD0022A0
:100A9C0008212F4800F0F7FD002210212C4800F00F
:100AAC00F2FD002220212A4800F0EDFD0022402119
:100ABC00274800F0E8FD47E000220121244800F01F
:100ACC00E2FD00220221224800F0DDFD002204217B
:100ADC001F4800F0D8FD002208211D4800F0D3FD6E
:100AEC00012210211A4800F0CEFD002220211848C6
:100AFC0000F0C9FD00224021154800F0C4FD23E0A0
:100B0C0001220121124800F0BEFD012202211048F1
:100B1C0000F0B9FD012204210D4800F0B4FD0122C2
:100B2C0008210B4800F0AFFD01221021084800F00D
:100B3C00AAFD01222021064800F0A5FD012240213A
:100B4C00034800F0A0FD00BF00BF0837BD4680BDC4
:100B5C00000C014080B500AF00F094FA00F026F8CC
:100B6C0000F0ACF800F05EF80C4801F0F5F90C4B15
:100B7C0000221A604FF47A7000F006F9FFF7E0FAE1
:100B8C00084B1B68012BF9D12021074800F093FD7D
:100B9C004FF47A7000F0F8F8F0E700BF94000020F2
:100BAC00340000206C0000200008014080B590B09B
:100BBC0000AF07F1180328220021184601F084FD2C
:100BCC003B1D00221A605A609A60DA601A61022397
:100BDC00BB610123BB621023FB6200237B6307F123
:100BEC001803184600F080FD0346002B01D000F0DE
:100BFC00C5F80F237B600023BB600023FB60002340
:100C0C003B6100237B613B1D0021184600F0ECFF8B
:100C1C000346002B01D000F0B1F800BF4037BD46B1
:100C2C0080BD000080B586B000AF07F1080300223C
:100C3C001A605A609A60DA603B4600221A605A6069
:100C4C001D4B4FF080421A601B4B41F63F725A60AD
:100C5C00194B00229A60184B0922DA60164B0022BD
:100C6C001A61154B00229A61134801F025F90346CD
:100C7C00002B01D000F082F84FF48053BB6007F1D9
:100C8C00080319460C4801F0BBFA0346002B01D0AF
:100C9C0000F074F800233B6000237B603B46194650
:100CAC00054801F083FC0346002B01D000F066F8E8
:100CBC0000BF1837BD4680BD9400002080B586B0BB
:100CCC0000AF07F1080300221A605A609A60DA60DC
:100CDC00274B9B69264A43F004039361244B9B6981
:100CEC0003F004037B607B68214B9B69204A43F033
:100CFC00080393611E4B9B6903F008033B603B6840
:100D0C00002220211B4800F0BEFC00227F211A4843
:100D1C0000F0B9FC2023BB600123FB6000233B6186
:100D2C0002237B6107F108031946124800F01AFBF5
:100D3C007F23BB600123FB6000233B6102237B61AB
:100D4C0007F1080319460C4800F00CFB4FF4E05374
:100D5C00BB600023FB6001233B6107F108031946CC
:100D6C00054800F0FFFA00BF1837BD4680BD00BF34
:100D7C000010024000080140000C014080B400AF9C
:100D8C0072B600BFFEE7000080B483B000AF78609D
:100D9C00074B1B687A6892FBF3F3064A1360064B09
:100DAC0000221A6000BF0C37BD4680BC704700BFE4
:100DBC0008000020800000206C00002080B483B06C
:100DCC0000AF7860074B1B687A6892FBF3F3064A16
:100DDC001360064B00221A6000BF0C37BD4680BC66
:100DEC00704700BF08000020840000207000002025
:100DFC0080B483B000AF7860074B1B687A6892FBB5
:100E0C00F3F3064A1360064B00221A6000BF0C373E
:100E1C00BD4680BC704700BF080000208800002041
:100E2C007400002080B400AF294B1B68002B0BDD35
:100E3C00274B1B68013B264A1360254B1B68002B74
:100E4C0002DC244B01221A60234B1B68002B0BDDA8
:100E5C00214B1B68013B204A13601F4B1B68002B66
:100E6C0002DC1E4B01221A601D4B1B68002B0BDD94
:100E7C001B4B1B68013B1A4A1360194B1B68002B58
:100E8C0002DC184B01221A60174B1B68002B0BDD80
:100E9C00154B1B68013B144A1360134B1B68002B4A
:100EAC0002DC124B01221A60114B1B68002B0BDD6C
:100EBC000F4B1B68013B0E4A13600D4B1B68002B3C
:100ECC0002DC0C4B01221A6000BFBD4680BC70478F
:100EDC00800000206C0000208400002070000020A6
:100EEC0088000020740000208C0000207800002076
:100EFC00900000207C00002080B485B000AF154B22
:100F0C009B69144A43F001039361124B9B6903F0F4
:100F1C000103BB60BB680F4BDB690E4A43F0805387
:100F2C00D3610C4BDB6903F080537B607B680A4B0D
:100F3C005B68FB60FB6823F0E063FB60FB6843F0DD
:100F4C008063FB60044AFB68536000BF1437BD46E6
:100F5C0080BC7047001002400000014080B584B096
:100F6C0000AF78607B681B68B3F1804F13D10C4BDA
:100F7C00DB690B4A43F00103D361094BDB6903F0D6
:100F8C000103FB60FB68002200211C2000F0B3F978
:100F9C001C2000F0CCF900BF1037BD4680BD00BF4F
:100FAC000010024080B400AFFEE780B400AFFEE753
:100FBC0080B400AFFEE780B400AFFEE780B400AFB2
:100FCC00FEE780B400AF00BFBD4680BC704780B464
:100FDC0000AF00BFBD4680BC704780B400AF00BFFF
:100FEC00BD4680BC704780B500AF00F091F800BFE3
:100FFC0080BD000080B500AF024800F0F9FF00BFD3
:10100C0080BD00BF9400002080B400AF00BFBD467F
:10101C0080BC704780B582B000AF78607B681B687D
:10102C00B3F1804F03D1FFF775FBFFF7FBFE00BF59
:10103C000837BD4680BD00000C480D490D4A002301
:10104C0002E0D458C4500433C4188C42F9D30A4A71
:10105C000A4C002301E013600432A242FBD3FFF7D9
:10106C00D3FF01F00DFBFFF775FD7047000000206A
:10107C00180000202427000818000020E0000020A1
:10108C00FEE7000080B500AF084B1B68074A43F031
:10109C0010031360032000F023F90F2000F008F870
:1010AC00FFF72AFF0023184680BD00BF0020024036
:1010BC0080B582B000AF7860124B1A68124B1B7867
:1010CC0019464FF47A73B3FBF1F3B2FBF3F3184602
:1010DC0000F03BF90346002B01D001230EE07B68A6
:1010EC000F2B0AD8002279684FF0FF3000F003F97B
:1010FC00064A7B681360002300E00123184608377A
:10110C00BD4680BD0C000020140000201000002003
:10111C0080B400AF054B1B781A46054B1B68134473
:10112C00034A136000BFBD4680BC7047140000200A
:10113C00DC00002080B400AF024B1B681846BD4693
:10114C0080BC7047DC00002080B485B000AF7860B4
:10115C007B6803F00703FB600C4BDB68BB60BA6871
:10116C004FF6FF031340BB60FB681A02BB681343C6
:10117C0043F0BF6343F40033BB60044ABB68D360E5
:10118C0000BF1437BD4680BC704700BF00ED00E0C7
:10119C0080B400AF044BDB681B0A03F0070318464E
:1011AC00BD4680BC704700BF00ED00E080B483B04A
:1011BC0000AF0346FB7197F90730002B0BDBFB7973
:1011CC0003F01F02064997F907305B09012000FA6A
:1011DC0002F241F8232000BF0C37BD4680BC70479B
:1011EC0000E100E080B483B000AF03463960FB71CE
:1011FC0097F90730002B0ADB3B68DAB20C4997F9F8
:10120C0007301201D2B20B4483F800230AE03B688A
:10121C00DAB20849FB7903F00F03043B1201D2B296
:10122C000B441A7600BF0C37BD4680BC704700BF1C
:10123C0000E100E000ED00E080B489B000AFF860A0
:10124C00B9607A60FB6803F00703FB61FB69C3F1CB
:10125C000703042B28BF0423BB61FB690433062B53
:10126C0002D9FB69033B00E000237B614FF0FF32A6
:10127C00BB6902FA03F3DA43BB681A407B699A40F4
:10128C004FF0FF317B6901FA03F3D9437B680B40C4
:10129C00134318462437BD4680BC704780B582B0D6
:1012AC0000AF78607B68013BB3F1807F01D30123F1
:1012BC000FE00A4A7B68013B53600F214FF0FF306F
:1012CC00FFF790FF054B00229A60044B07221A602F
:1012DC00002318460837BD4680BD00BF10E000E073
:1012EC0080B582B000AF78607868FFF72DFF00BF43
:1012FC000837BD4680BD80B586B000AF0346B960E7
:10130C007A60FB7300237B61FFF742FF78617A6898
:10131C00B9687869FFF790FF024697F90F301146CC
:10132C001846FFF75FFF00BF1837BD4680BD80B57C
:10133C0082B000AF0346FB7197F907301846FFF7F0
:10134C0035FF00BF0837BD4680BD80B582B000AF09
:10135C0078607868FFF7A2FF034618460837BD4649
:10136C0080BD000080B48BB000AF78603960002382
:10137C007B6200233B6248E101227B6A02FA03F3A1
:10138C00FB613B681B68FA691340BB61BA69FB6976
:10139C009A4240F037813B685B68A34A93425ED027
:1013AC00A14A934275D8A14A934258D09F4A93427E
:1013BC006FD89F4A934252D09D4A934269D89D4A16
:1013CC0093424CD09B4A934263D89B4A934246D05B
:1013DC00994A93425DD8122B2AD8122B59D801A2C4
:1013EC0052F823F06B140008451400085714000839
:1013FC00991400089F1400089F1400089F140008FB
:10140C009F1400089F1400089F1400089F140008E4
:10141C009F1400089F1400089F1400089F140008D4
:10142C009F1400089F1400084D1400086114000854
:10143C00824A934213D02CE03B68DB683B6229E084
:10144C003B68DB6804333B6224E03B68DB680833B1
:10145C003B621FE03B68DB680C333B621AE03B6885
:10146C009B68002B02D104233B6213E03B689B6812
:10147C00012B05D108233B627B68FA691A6109E0EC
:10148C0008233B627B68FA695A6103E000233B62E4
:10149C0000E000BFBB69FF2B01D87B6801E07B68D3
:1014AC0004337B61BB69FF2B02D87B6A9B0002E093
:1014BC007B6A083B9B003B617B691A680F213B6987
:1014CC0001FA03F3DB431A40396A3B6901FA03F36F
:1014DC001A437B691A603B685B6803F08053002BEE
:1014EC0000F09080564B9B69554A43F00103936181
:1014FC00534B9B6903F00103BB60BB68514A7B6A89
:10150C009B08023352F82330FB607B6A03F0030321
:10151C009B000F2202FA03F3DB43FA681340FB60D3
:10152C007B68494A93420DD07B68484A934207D066
:10153C007B68474A934201D1022304E0032302E073
:10154C00012300E000237A6A02F003029200934028
:10155C00FA681343FB603B497B6A9B080233FA68C9
:10156C0041F823203B685B6803F48033002B06D0E2
:10157C00384B1A683749BB6913430B6006E0354B8F
:10158C001A68BB69DB43334913400B603B685B68EB
:10159C0003F40033002B06D02E4B5A682D49BB693F
:1015AC0013434B6006E02B4B5A68BB69DB4329495C
:1015BC0013404B603B685B6803F48013002B06D030
:1015CC00244B9A682349BB6913438B6006E0214B7B
:1015DC009A68BB69DB431F4913408B603B685B68AF
:1015EC0003F40013002B06D01A4BDA681949BB69B7
:1015FC001343CB6006E0174BDA68BB69DB43154934
:10160C001340CB607B6A01337B623B681A687B6A50
:10161C0022FA03F3002B7FF4AFAE00BF00BF2C37D0
:10162C00BD4680BC704700BF000032100000311076
:10163C0000002210000021100000121000001110F8
:10164C00001002400000014000080140000C014065
:10165C00001001400004014080B485B000AF7860F8
:10166C000B467B807B689A687B881340002B02D0EA
:10167C000123FB7301E00023FB73FB7B184614373B
:10168C00BD4680BC704780B483B000AF78600B4619
:10169C007B8013467B707B78002B03D07A887B6829
:1016AC001A6103E07B881A047B681A6100BF0C374F
:1016BC00BD4680BC704780B485B000AF78600B46E7
:1016CC007B807B68DB68FB607A88FB6813401A04BC
:1016DC00FB68D9437B880B401A437B681A6100BFB7
:1016EC001437BD4680BC704780B586B000AF7860BB
:1016FC007B68002B01D101236CE27B681B6803F033
:10170C000103002B00F08780924B5B6803F00C0305
:10171C00042B0CD08F4B5B6803F00C03082B12D1FD
:10172C008C4B5B6803F48033B3F5803F0BD1894B52
:10173C001B6803F40033002B6CD07B685B68002BB8
:10174C0068D1012346E27B685B68B3F5803F06D124
:10175C00804B1B687F4A43F4803313602EE07B6818
:10176C005B68002B0CD17B4B1B687A4A23F48033CB
:10177C001360784B1B68774A23F4802313601DE0B9
:10178C007B685B68B3F5A02F0CD1724B1B68714A58
:10179C0043F4802313606F4B1B686E4A43F4803311
:1017AC0013600BE06B4B1B686A4A23F480331360A5
:1017BC00684B1B68674A23F4802313607B685B6863
:1017CC00002B13D0FFF7B6FC386108E0FFF7B2FC32
:1017DC0002463B69D31A642B01D90323FAE15D4B12
:1017EC001B6803F40033002BF0D014E0FFF7A2FCCD
:1017FC00386108E0FFF79EFC02463B69D31A642B64
:10180C0001D90323E6E1534B1B6803F40033002B8F
:10181C00F0D100E000BF7B681B6803F00203002BD3
:10182C0063D04C4B5B6803F00C03002B0BD0494B83
:10183C005B6803F00C03082B1CD1464B5B6803F46C
:10184C008033002B16D1434B1B6803F00203002B93
:10185C0005D07B681B69012B01D00123BAE13D4BFC
:10186C001B6823F0F8027B685B69DB003949134382
:10187C000B603AE07B681B69002B20D0364B0122B1
:10188C001A60FFF757FC386108E0FFF753FC02467B
:10189C003B69D31A022B01D903239BE12D4B1B6807
:1018AC0003F00203002BF0D02A4B1B6823F0F80244
:1018BC007B685B69DB00274913430B6015E0264B03
:1018CC0000221A60FFF736FC386108E0FFF732FCA3
:1018DC0002463B69D31A022B01D903237AE11D4B33
:1018EC001B6803F00203002BF0D17B681B6803F02C
:1018FC000803002B3AD07B689B69002B19D0174B3F
:10190C0001221A60FFF716FC386108E0FFF712FCA1
:10191C0002463B69D31A022B01D903235AE10D4B22
:10192C005B6A03F00203002BF0D0012000F0A6FA52
:10193C001CE00A4B00221A60FFF7FCFB38610FE039
:10194C00FFF7F8FB02463B69D31A022B08D9032395
:10195C0040E100BF001002400000424280044242BD
:10196C009E4B5B6A03F00203002BE9D17B681B687A
:10197C0003F00403002B00F0A6800023FB75974BAB
:10198C00DB6903F08053002B0DD1944BDB69934A38
:10199C0043F08053D361914BDB6903F08053BB6000
:1019AC00BB680123FB758E4B1B6803F48073002B03
:1019BC0018D18B4B1B688A4A43F480731360FFF772
:1019CC00B9FB386108E0FFF7B5FB02463B69D31A57
:1019DC00642B01D90323FDE0814B1B6803F4807356
:1019EC00002BF0D07B68DB68012B06D17B4B1B6A8C
:1019FC007A4A43F0010313622DE07B68DB68002B0D
:101A0C000CD1764B1B6A754A23F001031362734B9E
:101A1C001B6A724A23F0040313621CE07B68DB68C8
:101A2C00052B0CD16D4B1B6A6C4A43F004031362FB
:101A3C006A4B1B6A694A43F0010313620BE0674B64
:101A4C001B6A664A23F001031362644B1B6A634AE8
:101A5C0023F0040313627B68DB68002B15D0FFF7BF
:101A6C0069FB38610AE0FFF765FB02463B69D31A54
:101A7C0041F28832934201D90323ABE0574B1B6AE6
:101A8C0003F00203002BEED014E0FFF753FB386198
:101A9C000AE0FFF74FFB02463B69D31A41F288324A
:101AAC00934201D9032395E04C4B1B6A03F00203CC
:101ABC00002BEED1FB7D012B05D1484BDB69474A4E
:101ACC0023F08053D3617B68DB69002B00F08180AD
:101ADC00424B5B6803F00C03082B61D07B68DB691D
:101AEC00022B46D13F4B00221A60FFF723FB3861D3
:101AFC0008E0FFF71FFB02463B69D31A022B01D902
:101B0C00032367E0354B1B6803F00073002BF0D107
:101B1C007B681B6AB3F5803F08D1304B5B6823F4BC
:101B2C0000327B689B682D4913434B602B4B5B68E1
:101B3C0023F474127B68196A7B685B6A0B43274930
:101B4C0013434B60274B01221A60FFF7F3FA3861FD
:101B5C0008E0FFF7EFFA02463B69D31A022B01D9D2
:101B6C00032337E01D4B1B6803F00073002BF0D0F0
:101B7C002FE01C4B00221A60FFF7DCFA386108E0FA
:101B8C00FFF7D8FA02463B69D31A022B01D903237B
:101B9C0020E0124B1B6803F00073002BF0D118E00F
:101BAC007B68DB69012B01D1012313E00B4B5B68D4
:101BBC00FB60FB6803F480327B681B6A9A4206D197
:101BCC00FB6803F470127B685B6A9A4201D00123B4
:101BDC0000E0002318461837BD4680BD00100240B7
:101BEC00007000406000424280B584B000AF786065
:101BFC0039607B68002B01D10123D0E06A4B1B6854
:101C0C0003F007033A689A4210D9674B1B6823F01C
:101C1C00070265493B6813430B60634B1B6803F079
:101C2C0007033A689A4201D00123B8E07B681B682D
:101C3C0003F00203002B20D07B681B6803F0040325
:101C4C00002B05D0594B5B68584A43F4E063536052
:101C5C007B681B6803F00803002B05D0534B5B68B3
:101C6C00524A43F460535360504B5B6823F0F002CC
:101C7C007B689B684D4913434B607B681B6803F082
:101C8C000103002B40D07B685B68012B07D1474BCD
:101C9C001B6803F40033002B15D101237FE07B6814
:101CAC005B68022B07D1414B1B6803F00073002BC0
:101CBC0009D1012373E03D4B1B6803F00203002B99
:101CCC0001D101236BE0394B5B6823F003027B6885
:101CDC005B68364913434B60FFF72CFAF8600AE057
:101CEC00FFF728FA0246FB68D31A41F28832934276
:101CFC0001D9032353E02D4B5B6803F00C027B6886
:101D0C005B689B009A42EBD1274B1B6803F00703DF
:101D1C003A689A4210D2244B1B6823F007022249DE
:101D2C003B6813430B60204B1B6803F007033A68B6
:101D3C009A4201D0012332E07B681B6803F0040354
:101D4C00002B08D0194B5B6823F4E0627B68DB68DE
:101D5C00164913434B607B681B6803F00803002B88
:101D6C0009D0124B5B6823F460527B681B69DB0063
:101D7C000E4913434B6000F021F802460B4B5B6895
:101D8C001B0903F00F030A49CB5C22FA03F3094A3F
:101D9C001360094B1B681846FFF78AF90023184695
:101DAC001037BD4680BD00BF00200240001002402D
:101DBC000C2700080C0000201000002090B48AB002
:101DCC0000AF2A4B3C1D0FCB84E80F0040F20123DF
:101DDC003B800023FB610023BB6100237B6200235B
:101DEC007B6100233B62224B5B68FB61FB6903F068
:101DFC000C03042B02D0082B03D02DE01D4B3B62AF
:101E0C002DE0FB699B0C03F00F0307F12802134430
:101E1C0013F8243C7B61FB6903F48033002B13D053
:101E2C00134B5B685B0C03F0010307F128021344AE
:101E3C0013F8283CBB617B690E4A02FB03F2BB69B9
:101E4C00B2FBF3F37B6204E07B690B4A02FB03F306
:101E5C007B627B6A3B6202E0064B3B6200BF3B6AE3
:101E6C0018462837BD4690BC704700BFFC260008BA
:101E7C000010024000127A0000093D0080B485B0C9
:101E8C0000AF78600A4B1B680A4AA2FB03235B0A6B
:101E9C007A6802FB03F3FB6000BFFB685A1EFA6012
:101EAC00002BF9D100BF00BF1437BD4680BC704772
:101EBC000C000020D34D621080B582B000AF78606A
:101ECC007B68002B01D1012341E07B6893F83D3006
:101EDC00DBB2002B06D17B68002283F83C207868AB
:101EEC00FFF73CF87B68022283F83D207B681A6878
:101EFC007B6804331946104600F06AFA7B680122AD
:101F0C0083F846207B68012283F83E207B680122FF
:101F1C0083F83F207B68012283F840207B680122F4
:101F2C0083F841207B68012283F842207B680122E0
:101F3C0083F843207B68012283F844207B680122CC
:101F4C0083F845207B68012283F83D200023184646
:101F5C000837BD4680BD000080B485B000AF786006
:101F6C007B6893F83D30DBB2012B01D0012335E0C7
:101F7C007B68022283F83D207B681B68DA687B68EB
:101F8C001B6842F00102DA607B681B68164A9342B8
:101F9C0009D07B681B68B3F1804F04D07B681B6849
:101FAC00124A934211D17B681B689B6803F00703AC
:101FBC00FB60FB68062B10D07B681B681A687B687B
:101FCC001B6842F001021A6007E07B681B681A6804
:101FDC007B681B6842F001021A6000231846143714
:101FEC00BD4680BC704700BF002C0140000400407F
:101FFC0080B582B000AF78607B681B681B6903F00A
:10200C000203022B22D17B681B68DB6803F00203FE
:10201C00022B1BD17B681B686FF002021A617B6874
:10202C0001221A777B681B689B6903F00303002B62
:10203C0003D0786800F0B1F905E0786800F0A4F9F5
:10204C00786800F0B3F97B6800221A777B681B680C
:10205C001B6903F00403042B22D17B681B68DB682B
:10206C0003F00403042B1BD17B681B686FF0040284
:10207C001A617B6802221A777B681B689B6903F4E0
:10208C004073002B03D0786800F087F905E078687E
:10209C0000F07AF9786800F089F97B6800221A77E9
:1020AC007B681B681B6903F00803082B22D17B6833
:1020BC001B68DB6803F00803082B1BD17B681B68CB
:1020CC006FF008021A617B6804221A777B681B6820
:1020DC00DB6903F00303002B03D0786800F05DF993
:1020EC0005E0786800F050F9786800F05FF97B68DB
:1020FC0000221A777B681B681B6903F01003102BF6
:10210C0022D17B681B68DB6803F01003102B1BD1FA
:10211C007B681B686FF010021A617B6808221A77C3
:10212C007B681B68DB6903F44073002B03D0786871
:10213C0000F033F905E0786800F026F9786800F0D3
:10214C0035F97B6800221A777B681B681B6903F0E2
:10215C000103012B0ED17B681B68DB6803F00103C4
:10216C00012B07D17B681B686FF001021A6178683C
:10217C00FEF750FF7B681B681B6903F08003802B04
:10218C000ED17B681B68DB6803F08003802B07D1C2
:10219C007B681B686FF080021A61786800F067FA40
:1021AC007B681B681B6903F04003402B0ED17B68D6
:1021BC001B68DB6803F04003402B07D17B681B686E
:1021CC006FF040021A61786800F0F9F87B681B68C0
:1021DC001B6903F02003202B0ED17B681B68DB6886
:1021EC0003F02003202B07D17B681B686FF02002C3
:1021FC001A61786800F032FA00BF0837BD4680BD1E
:10220C0080B584B000AF786039607B6893F83C305F
:10221C00012B01D10223B3E07B68012283F83C201F
:10222C007B68022283F83D207B681B689B68FB60FF
:10223C00FB6823F07703FB60FB6823F47F43FB60B0
:10224C007B681B68FA689A603B681B68B3F5005F93
:10225C003ED0B3F5005F00F28780B3F5805F00F0ED
:10226C008580B3F5805F7FD8702B1AD0702B7BD80C
:10227C00602B50D0602B77D8502B3CD0502B73D880
:10228C00402B58D0402B6FD8302B64D0302B6BD8D0
:10229C00202B60D0202B67D8002B5CD0102B5AD071
:1022AC0062E07B6818683B6899683B685A683B68D1
:1022BC00DB6800F05CF97B681B689B68FB60FB6863
:1022CC0043F07703FB607B681B68FA689A604EE00A
:1022DC007B6818683B6899683B685A683B68DB68A0
:1022EC0000F045F97B681B689A687B681B6842F4B0
:1022FC0080429A603BE07B6818683B6859683B6891
:10230C00DB681A4600F0BCF87B681B685021184645
:10231C0000F013F92BE07B6818683B6859683B6840
:10232C00DB681A4600F0DAF87B681B6860211846F7
:10233C0000F003F91BE07B6818683B6859683B6840
:10234C00DB681A4600F09CF87B681B684021184635
:10235C0000F0F3F80BE07B681A683B681B681946C1
:10236C00104600F0EAF802E000BF00E000BF7B6816
:10237C00012283F83D207B68002283F83C20002357
:10238C0018461037BD4680BD80B483B000AF78606E
:10239C0000BF0C37BD4680BC704780B483B000AF23
:1023AC00786000BF0C37BD4680BC704780B483B0EA
:1023BC0000AF786000BF0C37BD4680BC704780B45E
:1023CC0083B000AF786000BF0C37BD4680BC70474F
:1023DC0080B485B000AF786039607B681B68FB60A7
:1023EC007B68254A934207D07B68B3F1804F03D0BA
:1023FC007B68224A934208D1FB6823F07003FB6090
:10240C003B685B68FA681343FB607B681A4A93422B
:10241C0007D07B68B3F1804F03D07B68174A934297
:10242C0008D1FB6823F44073FB603B68DB68FA68F7
:10243C001343FB60FB6823F080023B685B6913432A
:10244C00FB607B68FA681A603B689A687B68DA62A2
:10245C003B681A687B689A627B68074A934203D18F
:10246C003B681A697B681A637B6801225A6100BF5A
:10247C001437BD4680BC7047002C0140000400405E
:10248C0080B487B000AFF860B9607A60FB681B6AF3
:10249C007B61FB681B6A23F00102FB681A62FB6814
:1024AC009B693B613B6923F0F0033B617B681B013B
:1024BC003A6913433B617B6923F00A037B617A69B8
:1024CC00BB6813437B61FB683A699A61FB687A6964
:1024DC001A6200BF1C37BD4680BC704780B487B001
:1024EC0000AFF860B9607A60FB681B6A23F01002D9
:1024FC00FB681A62FB689B697B61FB681B6A3B612A
:10250C007B6923F470437B617B681B037A691343FB
:10251C007B613B6923F0A0033B61BB681B013A69FB
:10252C0013433B61FB687A699A61FB683A691A62EA
:10253C0000BF1C37BD4680BC704780B485B000AF6F
:10254C00786039607B689B68FB60FB6823F07003E4
:10255C00FB603A68FB68134343F00703FB607B683E
:10256C00FA689A6000BF1437BD4680BC704780B4CF
:10257C0087B000AFF860B9607A603B60FB689B681D
:10258C007B617B6923F47F437B613B681A027B6828
:10259C001A43BB6813437A6913437B61FB687A69FE
:1025AC009A6000BF1C37BD4680BC704780B485B0B4
:1025BC0000AF786039607B6893F83C30012B01D117
:1025CC00022341E07B68012283F83C207B680222D5
:1025DC0083F83D207B681B685B68FB607B681B682D
:1025EC009B68BB60FB6823F07003FB603B681B6857
:1025FC00FA681343FB607B681B68FA685A607B6857
:10260C001B68144A934209D07B681B68B3F1804F56
:10261C0004D07B681B68104A93420CD1BB6823F032
:10262C008003BB603B685B68BA681343BB607B6824
:10263C001B68BA689A607B68012283F83D207B682E
:10264C00002283F83C20002318461437BD4680BC7A
:10265C00704700BF002C01400004004080B483B0E0
:10266C0000AF786000BF0C37BD4680BC704780B4AB
:10267C0083B000AF786000BF0C37BD4680BC70479C
:10268C0070B500260C4D0D4C641BA410A64209D14C
:10269C0000F022F800260A4D0A4C641BA410A64236
:1026AC0005D170BD55F8043B98470136EEE755F857
:1026BC00043B98470136F2E71C2700081C2700084A
:1026CC001C2700082027000803460244934200D12F
:1026DC00704703F8011BF9E7F8B500BFF8BC08BC5C
:1026EC009E467047F8B500BFF8BC08BC9E467047C4
:1026FC0002030405060708090A0B0C0D0E0F101037
:10270C000000000000000000010203040607080995
:04271C00310100087F
:042720000D0100089F
:1027240001000000020000000A0000000024F40080
:0827340010000000010000008C
:04000005080010459A
:00000001FF
